{
  "_format": "hh-sol-artifact-1",
  "contractName": "StocksToken2",
  "sourceName": "contracts/Stocks1.sol",
  "abi": [
    {
      "inputs": [],
      "stateMutability": "nonpayable",
      "type": "constructor"
    },
    {
      "inputs": [
        {
          "internalType": "address",
          "name": "spender",
          "type": "address"
        },
        {
          "internalType": "uint256",
          "name": "allowance",
          "type": "uint256"
        },
        {
          "internalType": "uint256",
          "name": "needed",
          "type": "uint256"
        }
      ],
      "name": "ERC20InsufficientAllowance",
      "type": "error"
    },
    {
      "inputs": [
        {
          "internalType": "address",
          "name": "sender",
          "type": "address"
        },
        {
          "internalType": "uint256",
          "name": "balance",
          "type": "uint256"
        },
        {
          "internalType": "uint256",
          "name": "needed",
          "type": "uint256"
        }
      ],
      "name": "ERC20InsufficientBalance",
      "type": "error"
    },
    {
      "inputs": [
        {
          "internalType": "address",
          "name": "approver",
          "type": "address"
        }
      ],
      "name": "ERC20InvalidApprover",
      "type": "error"
    },
    {
      "inputs": [
        {
          "internalType": "address",
          "name": "receiver",
          "type": "address"
        }
      ],
      "name": "ERC20InvalidReceiver",
      "type": "error"
    },
    {
      "inputs": [
        {
          "internalType": "address",
          "name": "sender",
          "type": "address"
        }
      ],
      "name": "ERC20InvalidSender",
      "type": "error"
    },
    {
      "inputs": [
        {
          "internalType": "address",
          "name": "spender",
          "type": "address"
        }
      ],
      "name": "ERC20InvalidSpender",
      "type": "error"
    },
    {
      "anonymous": false,
      "inputs": [
        {
          "indexed": true,
          "internalType": "address",
          "name": "owner",
          "type": "address"
        },
        {
          "indexed": true,
          "internalType": "address",
          "name": "spender",
          "type": "address"
        },
        {
          "indexed": false,
          "internalType": "uint256",
          "name": "value",
          "type": "uint256"
        }
      ],
      "name": "Approval",
      "type": "event"
    },
    {
      "anonymous": false,
      "inputs": [
        {
          "indexed": true,
          "internalType": "address",
          "name": "from",
          "type": "address"
        },
        {
          "indexed": true,
          "internalType": "address",
          "name": "to",
          "type": "address"
        },
        {
          "indexed": false,
          "internalType": "uint256",
          "name": "value",
          "type": "uint256"
        }
      ],
      "name": "Transfer",
      "type": "event"
    },
    {
      "inputs": [
        {
          "internalType": "address",
          "name": "owner",
          "type": "address"
        },
        {
          "internalType": "address",
          "name": "spender",
          "type": "address"
        }
      ],
      "name": "allowance",
      "outputs": [
        {
          "internalType": "uint256",
          "name": "",
          "type": "uint256"
        }
      ],
      "stateMutability": "view",
      "type": "function"
    },
    {
      "inputs": [
        {
          "internalType": "address",
          "name": "spender",
          "type": "address"
        },
        {
          "internalType": "uint256",
          "name": "value",
          "type": "uint256"
        }
      ],
      "name": "approve",
      "outputs": [
        {
          "internalType": "bool",
          "name": "",
          "type": "bool"
        }
      ],
      "stateMutability": "nonpayable",
      "type": "function"
    },
    {
      "inputs": [
        {
          "internalType": "address",
          "name": "account",
          "type": "address"
        }
      ],
      "name": "balanceOf",
      "outputs": [
        {
          "internalType": "uint256",
          "name": "",
          "type": "uint256"
        }
      ],
      "stateMutability": "view",
      "type": "function"
    },
    {
      "inputs": [
        {
          "internalType": "uint256",
          "name": "buyerUserId",
          "type": "uint256"
        },
        {
          "internalType": "uint256",
          "name": "numberOfTokens",
          "type": "uint256"
        },
        {
          "internalType": "uint256",
          "name": "sellerUserId",
          "type": "uint256"
        },
        {
          "internalType": "address",
          "name": "sellerAddress",
          "type": "address"
        },
        {
          "internalType": "uint256",
          "name": "companyId",
          "type": "uint256"
        }
      ],
      "name": "buyTokens",
      "outputs": [],
      "stateMutability": "payable",
      "type": "function"
    },
    {
      "inputs": [
        {
          "internalType": "uint256",
          "name": "",
          "type": "uint256"
        }
      ],
      "name": "companies",
      "outputs": [
        {
          "internalType": "uint256",
          "name": "",
          "type": "uint256"
        }
      ],
      "stateMutability": "view",
      "type": "function"
    },
    {
      "inputs": [
        {
          "internalType": "uint256",
          "name": "",
          "type": "uint256"
        }
      ],
      "name": "companyNames",
      "outputs": [
        {
          "internalType": "string",
          "name": "",
          "type": "string"
        }
      ],
      "stateMutability": "view",
      "type": "function"
    },
    {
      "inputs": [
        {
          "internalType": "uint256",
          "name": "",
          "type": "uint256"
        }
      ],
      "name": "companyTotalBalance",
      "outputs": [
        {
          "internalType": "uint256",
          "name": "",
          "type": "uint256"
        }
      ],
      "stateMutability": "view",
      "type": "function"
    },
    {
      "inputs": [],
      "name": "decimals",
      "outputs": [
        {
          "internalType": "uint8",
          "name": "",
          "type": "uint8"
        }
      ],
      "stateMutability": "view",
      "type": "function"
    },
    {
      "inputs": [
        {
          "internalType": "uint256",
          "name": "userId",
          "type": "uint256"
        },
        {
          "internalType": "uint256",
          "name": "companyId",
          "type": "uint256"
        },
        {
          "internalType": "string",
          "name": "companyName",
          "type": "string"
        }
      ],
      "name": "deposit",
      "outputs": [],
      "stateMutability": "payable",
      "type": "function"
    },
    {
      "inputs": [
        {
          "internalType": "uint256",
          "name": "companyId",
          "type": "uint256"
        }
      ],
      "name": "getCompanyOwnership",
      "outputs": [
        {
          "components": [
            {
              "internalType": "uint256",
              "name": "userId",
              "type": "uint256"
            },
            {
              "internalType": "uint256",
              "name": "ownershipPercentage",
              "type": "uint256"
            }
          ],
          "internalType": "struct StocksToken2.ParticipantOwnership[]",
          "name": "",
          "type": "tuple[]"
        }
      ],
      "stateMutability": "view",
      "type": "function"
    },
    {
      "inputs": [
        {
          "internalType": "uint256",
          "name": "companyId",
          "type": "uint256"
        }
      ],
      "name": "getCompanyTotalBalance",
      "outputs": [
        {
          "internalType": "uint256",
          "name": "",
          "type": "uint256"
        }
      ],
      "stateMutability": "view",
      "type": "function"
    },
    {
      "inputs": [
        {
          "internalType": "uint256",
          "name": "userId",
          "type": "uint256"
        }
      ],
      "name": "getUserBalance",
      "outputs": [
        {
          "internalType": "uint256",
          "name": "",
          "type": "uint256"
        }
      ],
      "stateMutability": "view",
      "type": "function"
    },
    {
      "inputs": [
        {
          "internalType": "uint256",
          "name": "userId",
          "type": "uint256"
        }
      ],
      "name": "getUserInvestedCompanies",
      "outputs": [
        {
          "components": [
            {
              "internalType": "uint256",
              "name": "id",
              "type": "uint256"
            },
            {
              "internalType": "string",
              "name": "name",
              "type": "string"
            }
          ],
          "internalType": "struct StocksToken2.CompanyInfo[]",
          "name": "",
          "type": "tuple[]"
        }
      ],
      "stateMutability": "view",
      "type": "function"
    },
    {
      "inputs": [
        {
          "internalType": "uint256",
          "name": "userId",
          "type": "uint256"
        },
        {
          "internalType": "uint256",
          "name": "companyId",
          "type": "uint256"
        }
      ],
      "name": "getUserTokenBalance",
      "outputs": [
        {
          "internalType": "uint256",
          "name": "",
          "type": "uint256"
        }
      ],
      "stateMutability": "view",
      "type": "function"
    },
    {
      "inputs": [
        {
          "internalType": "uint256",
          "name": "",
          "type": "uint256"
        }
      ],
      "name": "isCompany",
      "outputs": [
        {
          "internalType": "bool",
          "name": "",
          "type": "bool"
        }
      ],
      "stateMutability": "view",
      "type": "function"
    },
    {
      "inputs": [
        {
          "internalType": "uint256",
          "name": "",
          "type": "uint256"
        }
      ],
      "name": "isParticipant",
      "outputs": [
        {
          "internalType": "bool",
          "name": "",
          "type": "bool"
        }
      ],
      "stateMutability": "view",
      "type": "function"
    },
    {
      "inputs": [],
      "name": "name",
      "outputs": [
        {
          "internalType": "string",
          "name": "",
          "type": "string"
        }
      ],
      "stateMutability": "view",
      "type": "function"
    },
    {
      "inputs": [
        {
          "internalType": "uint256",
          "name": "",
          "type": "uint256"
        }
      ],
      "name": "participants",
      "outputs": [
        {
          "internalType": "uint256",
          "name": "",
          "type": "uint256"
        }
      ],
      "stateMutability": "view",
      "type": "function"
    },
    {
      "inputs": [],
      "name": "symbol",
      "outputs": [
        {
          "internalType": "string",
          "name": "",
          "type": "string"
        }
      ],
      "stateMutability": "view",
      "type": "function"
    },
    {
      "inputs": [],
      "name": "totalSupply",
      "outputs": [
        {
          "internalType": "uint256",
          "name": "",
          "type": "uint256"
        }
      ],
      "stateMutability": "view",
      "type": "function"
    },
    {
      "inputs": [
        {
          "internalType": "address",
          "name": "to",
          "type": "address"
        },
        {
          "internalType": "uint256",
          "name": "value",
          "type": "uint256"
        }
      ],
      "name": "transfer",
      "outputs": [
        {
          "internalType": "bool",
          "name": "",
          "type": "bool"
        }
      ],
      "stateMutability": "nonpayable",
      "type": "function"
    },
    {
      "inputs": [
        {
          "internalType": "address",
          "name": "from",
          "type": "address"
        },
        {
          "internalType": "address",
          "name": "to",
          "type": "address"
        },
        {
          "internalType": "uint256",
          "name": "value",
          "type": "uint256"
        }
      ],
      "name": "transferFrom",
      "outputs": [
        {
          "internalType": "bool",
          "name": "",
          "type": "bool"
        }
      ],
      "stateMutability": "nonpayable",
      "type": "function"
    },
    {
      "inputs": [
        {
          "internalType": "uint256",
          "name": "",
          "type": "uint256"
        },
        {
          "internalType": "uint256",
          "name": "",
          "type": "uint256"
        }
      ],
      "name": "userTokenBalance",
      "outputs": [
        {
          "internalType": "uint256",
          "name": "",
          "type": "uint256"
        }
      ],
      "stateMutability": "view",
      "type": "function"
    }
  ],
  "bytecode": "0x60806040523480156200001157600080fd5b506040518060400160405280600a81526020017f53746f636b546f6b656e000000000000000000000000000000000000000000008152506040518060400160405280600381526020017f535443000000000000000000000000000000000000000000000000000000000081525081600390816200008f919062000324565b508060049081620000a1919062000324565b5050506200040b565b600081519050919050565b7f4e487b7100000000000000000000000000000000000000000000000000000000600052604160045260246000fd5b7f4e487b7100000000000000000000000000000000000000000000000000000000600052602260045260246000fd5b600060028204905060018216806200012c57607f821691505b602082108103620001425762000141620000e4565b5b50919050565b60008190508160005260206000209050919050565b60006020601f8301049050919050565b600082821b905092915050565b600060088302620001ac7fffffffffffffffffffffffffffffffffffffffffffffffffffffffffffffffff826200016d565b620001b886836200016d565b95508019841693508086168417925050509392505050565b6000819050919050565b6000819050919050565b600062000205620001ff620001f984620001d0565b620001da565b620001d0565b9050919050565b6000819050919050565b6200022183620001e4565b6200023962000230826200020c565b8484546200017a565b825550505050565b600090565b6200025062000241565b6200025d81848462000216565b505050565b5b8181101562000285576200027960008262000246565b60018101905062000263565b5050565b601f821115620002d4576200029e8162000148565b620002a9846200015d565b81016020851015620002b9578190505b620002d1620002c8856200015d565b83018262000262565b50505b505050565b600082821c905092915050565b6000620002f960001984600802620002d9565b1980831691505092915050565b6000620003148383620002e6565b9150826002028217905092915050565b6200032f82620000aa565b67ffffffffffffffff8111156200034b576200034a620000b5565b5b62000357825462000113565b6200036482828562000289565b600060209050601f8311600181146200039c576000841562000387578287015190505b62000393858262000306565b86555062000403565b601f198416620003ac8662000148565b60005b82811015620003d657848901518255600182019150602085019450602081019050620003af565b86831015620003f65784890151620003f2601f891682620002e6565b8355505b6001600288020188555050505b505050505050565b61285a806200041b6000396000f3fe6080604052600436106101405760003560e01c806335c1d349116100b6578063a9059cbb1161006f578063a9059cbb1461050a578063acafef7614610547578063c2b616ab14610563578063dd62ed3e146105a0578063fb816f86146105dd578063fca32ac31461061a57610140565b806335c1d349146103ae57806353bba0fb146103eb5780635c3866951461042857806370a082311461046557806395d89b41146104a257806397d9efd2146104cd57610140565b806325890b181161010857806325890b18146102525780632813d19d1461028f578063281b9eff146102cc5780632844ffb6146103095780632e0c3f3c14610346578063313ce5671461038357610140565b806306fdde0314610145578063095ea7b314610170578063111953ac146101ad57806318160ddd146101ea57806323b872dd14610215575b600080fd5b34801561015157600080fd5b5061015a610636565b60405161016791906119f8565b60405180910390f35b34801561017c57600080fd5b5061019760048036038101906101929190611ac2565b6106c8565b6040516101a49190611b1d565b60405180910390f35b3480156101b957600080fd5b506101d460048036038101906101cf9190611b38565b6106eb565b6040516101e19190611b1d565b60405180910390f35b3480156101f657600080fd5b506101ff61070b565b60405161020c9190611b74565b60405180910390f35b34801561022157600080fd5b5061023c60048036038101906102379190611b8f565b610715565b6040516102499190611b1d565b60405180910390f35b34801561025e57600080fd5b5061027960048036038101906102749190611b38565b610744565b6040516102869190611ccf565b60405180910390f35b34801561029b57600080fd5b506102b660048036038101906102b19190611b38565b610928565b6040516102c39190611b74565b60405180910390f35b3480156102d857600080fd5b506102f360048036038101906102ee9190611b38565b61094c565b6040516103009190611e3a565b60405180910390f35b34801561031557600080fd5b50610330600480360381019061032b9190611e5c565b610bae565b60405161033d9190611b74565b60405180910390f35b34801561035257600080fd5b5061036d60048036038101906103689190611b38565b610bdd565b60405161037a9190611b74565b60405180910390f35b34801561038f57600080fd5b50610398610c61565b6040516103a59190611eb8565b60405180910390f35b3480156103ba57600080fd5b506103d560048036038101906103d09190611b38565b610c6a565b6040516103e29190611b74565b60405180910390f35b3480156103f757600080fd5b50610412600480360381019061040d9190611b38565b610c8e565b60405161041f9190611b74565b60405180910390f35b34801561043457600080fd5b5061044f600480360381019061044a9190611e5c565b610cab565b60405161045c9190611b74565b60405180910390f35b34801561047157600080fd5b5061048c60048036038101906104879190611ed3565b610cd0565b6040516104999190611b74565b60405180910390f35b3480156104ae57600080fd5b506104b7610d18565b6040516104c491906119f8565b60405180910390f35b3480156104d957600080fd5b506104f460048036038101906104ef9190611b38565b610daa565b6040516105019190611b1d565b60405180910390f35b34801561051657600080fd5b50610531600480360381019061052c9190611ac2565b610dca565b60405161053e9190611b1d565b60405180910390f35b610561600480360381019061055c9190611f00565b610ded565b005b34801561056f57600080fd5b5061058a60048036038101906105859190611b38565b611007565b6040516105979190611b74565b60405180910390f35b3480156105ac57600080fd5b506105c760048036038101906105c29190611f7b565b61101f565b6040516105d49190611b74565b60405180910390f35b3480156105e957600080fd5b5061060460048036038101906105ff9190611b38565b6110a6565b60405161061191906119f8565b60405180910390f35b610634600480360381019061062f91906120f0565b611146565b005b6060600380546106459061218e565b80601f01602080910402602001604051908101604052809291908181526020018280546106719061218e565b80156106be5780601f10610693576101008083540402835291602001916106be565b820191906000526020600020905b8154815290600101906020018083116106a157829003601f168201915b5050505050905090565b6000806106d3611314565b90506106e081858561131c565b600191505092915050565b60086020528060005260406000206000915054906101000a900460ff1681565b6000600254905090565b600080610720611314565b905061072d85828561132e565b6107388585856113c2565b60019150509392505050565b60606000600a60008481526020019081526020016000205490506000805b6005805490508110156107d65760006009600060058481548110610789576107886121bf565b5b9060005260206000200154815260200190815260200160002060008781526020019081526020016000205411156107c95781806107c59061221d565b9250505b8080600101915050610762565b5060008167ffffffffffffffff8111156107f3576107f2611fc5565b5b60405190808252806020026020018201604052801561082c57816020015b610819611934565b8152602001906001900390816108115790505b5090506000805b60058054905081101561091b576000600960006005848154811061085a576108596121bf565b5b906000526020600020015481526020019081526020016000206000898152602001908152602001600020549050600081111561090d576000866064836108a09190612265565b6108aa91906122d6565b90506040518060400160405280600585815481106108cb576108ca6121bf565b5b90600052602060002001548152602001828152508585815181106108f2576108f16121bf565b5b602002602001018190525083806109089061221d565b945050505b508080600101915050610833565b5081945050505050919050565b6006818154811061093857600080fd5b906000526020600020016000915090505481565b6060600060068054905090506000805b828110156109cb5760006009600087815260200190815260200160002060006006848154811061098f5761098e6121bf565b5b906000526020600020015481526020019081526020016000205411156109be5781806109ba9061221d565b9250505b808060010191505061095c565b5060008167ffffffffffffffff8111156109e8576109e7611fc5565b5b604051908082528060200260200182016040528015610a2157816020015b610a0e61194e565b815260200190600190039081610a065790505b5090506000805b84811015610ba157600060096000898152602001908152602001600020600060068481548110610a5b57610a5a6121bf565b5b90600052602060002001548152602001908152602001600020541115610b9457604051806040016040528060068381548110610a9a57610a996121bf565b5b90600052602060002001548152602001600b600060068581548110610ac257610ac16121bf565b5b906000526020600020015481526020019081526020016000208054610ae69061218e565b80601f0160208091040260200160405190810160405280929190818152602001828054610b129061218e565b8015610b5f5780601f10610b3457610100808354040283529160200191610b5f565b820191906000526020600020905b815481529060010190602001808311610b4257829003601f168201915b5050505050815250838381518110610b7a57610b796121bf565b5b60200260200101819052508180610b909061221d565b9250505b8080600101915050610a28565b5081945050505050919050565b600060096000848152602001908152602001600020600083815260200190815260200160002054905092915050565b600080600090506000600680549050905060005b81811015610c565760096000868152602001908152602001600020600060068381548110610c2257610c216121bf565b5b906000526020600020015481526020019081526020016000205483610c479190612307565b92508080600101915050610bf1565b508192505050919050565b60006012905090565b60058181548110610c7a57600080fd5b906000526020600020016000915090505481565b6000600a6000838152602001908152602001600020549050919050565b6009602052816000526040600020602052806000526040600020600091509150505481565b60008060008373ffffffffffffffffffffffffffffffffffffffff1673ffffffffffffffffffffffffffffffffffffffff168152602001908152602001600020549050919050565b606060048054610d279061218e565b80601f0160208091040260200160405190810160405280929190818152602001828054610d539061218e565b8015610da05780601f10610d7557610100808354040283529160200191610da0565b820191906000526020600020905b815481529060010190602001808311610d8357829003601f168201915b5050505050905090565b60076020528060005260406000206000915054906101000a900460ff1681565b600080610dd5611314565b9050610de28185856113c2565b600191505092915050565b60008411610e30576040517f08c379a0000000000000000000000000000000000000000000000000000000008152600401610e2790612387565b60405180910390fd5b833414610e72576040517f08c379a0000000000000000000000000000000000000000000000000000000008152600401610e69906123f3565b60405180910390fd5b83610e7c83610cd0565b1015610ebd576040517f08c379a0000000000000000000000000000000000000000000000000000000008152600401610eb490612485565b60405180910390fd5b6008600086815260200190815260200160002060009054906101000a900460ff16610f3857600585908060018154018082558091505060019003906000526020600020016000909190919091505560016008600087815260200190815260200160002060006101000a81548160ff0219169083151502179055505b610f438233866113c2565b836009600087815260200190815260200160002060008381526020019081526020016000206000828254610f779190612307565b92505081905550836009600085815260200190815260200160002060008381526020019081526020016000206000828254610fb291906124a5565b925050819055508173ffffffffffffffffffffffffffffffffffffffff166108fc349081150290604051600060405180830381858888f19350505050158015610fff573d6000803e3d6000fd5b505050505050565b600a6020528060005260406000206000915090505481565b6000600160008473ffffffffffffffffffffffffffffffffffffffff1673ffffffffffffffffffffffffffffffffffffffff16815260200190815260200160002060008373ffffffffffffffffffffffffffffffffffffffff1673ffffffffffffffffffffffffffffffffffffffff16815260200190815260200160002054905092915050565b600b60205280600052604060002060009150905080546110c59061218e565b80601f01602080910402602001604051908101604052809291908181526020018280546110f19061218e565b801561113e5780601f106111135761010080835404028352916020019161113e565b820191906000526020600020905b81548152906001019060200180831161112157829003601f168201915b505050505081565b60003411611189576040517f08c379a000000000000000000000000000000000000000000000000000000000815260040161118090612525565b60405180910390fd5b6008600084815260200190815260200160002060009054906101000a900460ff1661120457600583908060018154018082558091505060019003906000526020600020016000909190919091505560016008600085815260200190815260200160002060006101000a81548160ff0219169083151502179055505b6007600083815260200190815260200160002060009054906101000a900460ff166112a057600682908060018154018082558091505060019003906000526020600020016000909190919091505560016007600084815260200190815260200160002060006101000a81548160ff02191690831515021790555080600b6000848152602001908152602001600020908161129e91906126f1565b505b6112aa33346114b6565b3460096000858152602001908152602001600020600084815260200190815260200160002060008282546112de9190612307565b9250508190555034600a600084815260200190815260200160002060008282546113089190612307565b92505081905550505050565b600033905090565b6113298383836001611538565b505050565b600061133a848461101f565b90507fffffffffffffffffffffffffffffffffffffffffffffffffffffffffffffffff81146113bc57818110156113ac578281836040517ffb8f41b20000000000000000000000000000000000000000000000000000000081526004016113a3939291906127d2565b60405180910390fd5b6113bb84848484036000611538565b5b50505050565b600073ffffffffffffffffffffffffffffffffffffffff168373ffffffffffffffffffffffffffffffffffffffff16036114345760006040517f96c6fd1e00000000000000000000000000000000000000000000000000000000815260040161142b9190612809565b60405180910390fd5b600073ffffffffffffffffffffffffffffffffffffffff168273ffffffffffffffffffffffffffffffffffffffff16036114a65760006040517fec442f0500000000000000000000000000000000000000000000000000000000815260040161149d9190612809565b60405180910390fd5b6114b183838361170f565b505050565b600073ffffffffffffffffffffffffffffffffffffffff168273ffffffffffffffffffffffffffffffffffffffff16036115285760006040517fec442f0500000000000000000000000000000000000000000000000000000000815260040161151f9190612809565b60405180910390fd5b6115346000838361170f565b5050565b600073ffffffffffffffffffffffffffffffffffffffff168473ffffffffffffffffffffffffffffffffffffffff16036115aa5760006040517fe602df050000000000000000000000000000000000000000000000000000000081526004016115a19190612809565b60405180910390fd5b600073ffffffffffffffffffffffffffffffffffffffff168373ffffffffffffffffffffffffffffffffffffffff160361161c5760006040517f94280d620000000000000000000000000000000000000000000000000000000081526004016116139190612809565b60405180910390fd5b81600160008673ffffffffffffffffffffffffffffffffffffffff1673ffffffffffffffffffffffffffffffffffffffff16815260200190815260200160002060008573ffffffffffffffffffffffffffffffffffffffff1673ffffffffffffffffffffffffffffffffffffffff168152602001908152602001600020819055508015611709578273ffffffffffffffffffffffffffffffffffffffff168473ffffffffffffffffffffffffffffffffffffffff167f8c5be1e5ebec7d5bd14f71427d1e84f3dd0314c0f7b2291e5b200ac8c7c3b925846040516117009190611b74565b60405180910390a35b50505050565b600073ffffffffffffffffffffffffffffffffffffffff168373ffffffffffffffffffffffffffffffffffffffff16036117615780600260008282546117559190612307565b92505081905550611834565b60008060008573ffffffffffffffffffffffffffffffffffffffff1673ffffffffffffffffffffffffffffffffffffffff168152602001908152602001600020549050818110156117ed578381836040517fe450d38c0000000000000000000000000000000000000000000000000000000081526004016117e4939291906127d2565b60405180910390fd5b8181036000808673ffffffffffffffffffffffffffffffffffffffff1673ffffffffffffffffffffffffffffffffffffffff16815260200190815260200160002081905550505b600073ffffffffffffffffffffffffffffffffffffffff168273ffffffffffffffffffffffffffffffffffffffff160361187d57806002600082825403925050819055506118ca565b806000808473ffffffffffffffffffffffffffffffffffffffff1673ffffffffffffffffffffffffffffffffffffffff168152602001908152602001600020600082825401925050819055505b8173ffffffffffffffffffffffffffffffffffffffff168373ffffffffffffffffffffffffffffffffffffffff167fddf252ad1be2c89b69c2b068fc378daa952ba7f163c4a11628f55a4df523b3ef836040516119279190611b74565b60405180910390a3505050565b604051806040016040528060008152602001600081525090565b604051806040016040528060008152602001606081525090565b600081519050919050565b600082825260208201905092915050565b60005b838110156119a2578082015181840152602081019050611987565b60008484015250505050565b6000601f19601f8301169050919050565b60006119ca82611968565b6119d48185611973565b93506119e4818560208601611984565b6119ed816119ae565b840191505092915050565b60006020820190508181036000830152611a1281846119bf565b905092915050565b6000604051905090565b600080fd5b600080fd5b600073ffffffffffffffffffffffffffffffffffffffff82169050919050565b6000611a5982611a2e565b9050919050565b611a6981611a4e565b8114611a7457600080fd5b50565b600081359050611a8681611a60565b92915050565b6000819050919050565b611a9f81611a8c565b8114611aaa57600080fd5b50565b600081359050611abc81611a96565b92915050565b60008060408385031215611ad957611ad8611a24565b5b6000611ae785828601611a77565b9250506020611af885828601611aad565b9150509250929050565b60008115159050919050565b611b1781611b02565b82525050565b6000602082019050611b326000830184611b0e565b92915050565b600060208284031215611b4e57611b4d611a24565b5b6000611b5c84828501611aad565b91505092915050565b611b6e81611a8c565b82525050565b6000602082019050611b896000830184611b65565b92915050565b600080600060608486031215611ba857611ba7611a24565b5b6000611bb686828701611a77565b9350506020611bc786828701611a77565b9250506040611bd886828701611aad565b9150509250925092565b600081519050919050565b600082825260208201905092915050565b6000819050602082019050919050565b611c1781611a8c565b82525050565b604082016000820151611c336000850182611c0e565b506020820151611c466020850182611c0e565b50505050565b6000611c588383611c1d565b60408301905092915050565b6000602082019050919050565b6000611c7c82611be2565b611c868185611bed565b9350611c9183611bfe565b8060005b83811015611cc2578151611ca98882611c4c565b9750611cb483611c64565b925050600181019050611c95565b5085935050505092915050565b60006020820190508181036000830152611ce98184611c71565b905092915050565b600081519050919050565b600082825260208201905092915050565b6000819050602082019050919050565b600082825260208201905092915050565b6000611d3982611968565b611d438185611d1d565b9350611d53818560208601611984565b611d5c816119ae565b840191505092915050565b6000604083016000830151611d7f6000860182611c0e565b5060208301518482036020860152611d978282611d2e565b9150508091505092915050565b6000611db08383611d67565b905092915050565b6000602082019050919050565b6000611dd082611cf1565b611dda8185611cfc565b935083602082028501611dec85611d0d565b8060005b85811015611e285784840389528151611e098582611da4565b9450611e1483611db8565b925060208a01995050600181019050611df0565b50829750879550505050505092915050565b60006020820190508181036000830152611e548184611dc5565b905092915050565b60008060408385031215611e7357611e72611a24565b5b6000611e8185828601611aad565b9250506020611e9285828601611aad565b9150509250929050565b600060ff82169050919050565b611eb281611e9c565b82525050565b6000602082019050611ecd6000830184611ea9565b92915050565b600060208284031215611ee957611ee8611a24565b5b6000611ef784828501611a77565b91505092915050565b600080600080600060a08688031215611f1c57611f1b611a24565b5b6000611f2a88828901611aad565b9550506020611f3b88828901611aad565b9450506040611f4c88828901611aad565b9350506060611f5d88828901611a77565b9250506080611f6e88828901611aad565b9150509295509295909350565b60008060408385031215611f9257611f91611a24565b5b6000611fa085828601611a77565b9250506020611fb185828601611a77565b9150509250929050565b600080fd5b600080fd5b7f4e487b7100000000000000000000000000000000000000000000000000000000600052604160045260246000fd5b611ffd826119ae565b810181811067ffffffffffffffff8211171561201c5761201b611fc5565b5b80604052505050565b600061202f611a1a565b905061203b8282611ff4565b919050565b600067ffffffffffffffff82111561205b5761205a611fc5565b5b612064826119ae565b9050602081019050919050565b82818337600083830152505050565b600061209361208e84612040565b612025565b9050828152602081018484840111156120af576120ae611fc0565b5b6120ba848285612071565b509392505050565b600082601f8301126120d7576120d6611fbb565b5b81356120e7848260208601612080565b91505092915050565b60008060006060848603121561210957612108611a24565b5b600061211786828701611aad565b935050602061212886828701611aad565b925050604084013567ffffffffffffffff81111561214957612148611a29565b5b612155868287016120c2565b9150509250925092565b7f4e487b7100000000000000000000000000000000000000000000000000000000600052602260045260246000fd5b600060028204905060018216806121a657607f821691505b6020821081036121b9576121b861215f565b5b50919050565b7f4e487b7100000000000000000000000000000000000000000000000000000000600052603260045260246000fd5b7f4e487b7100000000000000000000000000000000000000000000000000000000600052601160045260246000fd5b600061222882611a8c565b91507fffffffffffffffffffffffffffffffffffffffffffffffffffffffffffffffff820361225a576122596121ee565b5b600182019050919050565b600061227082611a8c565b915061227b83611a8c565b925082820261228981611a8c565b915082820484148315176122a05761229f6121ee565b5b5092915050565b7f4e487b7100000000000000000000000000000000000000000000000000000000600052601260045260246000fd5b60006122e182611a8c565b91506122ec83611a8c565b9250826122fc576122fb6122a7565b5b828204905092915050565b600061231282611a8c565b915061231d83611a8c565b9250828201905080821115612335576123346121ee565b5b92915050565b7f596f75206d75737420696e76657374206d6f7265207468616e20300000000000600082015250565b6000612371601b83611973565b915061237c8261233b565b602082019050919050565b600060208201905081810360008301526123a081612364565b9050919050565b7f4d7573742062652073616d652061732070726963650000000000000000000000600082015250565b60006123dd601583611973565b91506123e8826123a7565b602082019050919050565b6000602082019050818103600083015261240c816123d0565b9050919050565b7f53656c6c6572206d757374206861766520656e6f75676820746f6b656e20746f60008201527f2073656c6c000000000000000000000000000000000000000000000000000000602082015250565b600061246f602583611973565b915061247a82612413565b604082019050919050565b6000602082019050818103600083015261249e81612462565b9050919050565b60006124b082611a8c565b91506124bb83611a8c565b92508282039050818111156124d3576124d26121ee565b5b92915050565b7f596f75206861766520746f20696e7665737420736f6d65204554480000000000600082015250565b600061250f601b83611973565b915061251a826124d9565b602082019050919050565b6000602082019050818103600083015261253e81612502565b9050919050565b60008190508160005260206000209050919050565b60006020601f8301049050919050565b600082821b905092915050565b6000600883026125a77fffffffffffffffffffffffffffffffffffffffffffffffffffffffffffffffff8261256a565b6125b1868361256a565b95508019841693508086168417925050509392505050565b6000819050919050565b60006125ee6125e96125e484611a8c565b6125c9565b611a8c565b9050919050565b6000819050919050565b612608836125d3565b61261c612614826125f5565b848454612577565b825550505050565b600090565b612631612624565b61263c8184846125ff565b505050565b5b8181101561266057612655600082612629565b600181019050612642565b5050565b601f8211156126a55761267681612545565b61267f8461255a565b8101602085101561268e578190505b6126a261269a8561255a565b830182612641565b50505b505050565b600082821c905092915050565b60006126c8600019846008026126aa565b1980831691505092915050565b60006126e183836126b7565b9150826002028217905092915050565b6126fa82611968565b67ffffffffffffffff81111561271357612712611fc5565b5b61271d825461218e565b612728828285612664565b600060209050601f83116001811461275b5760008415612749578287015190505b61275385826126d5565b8655506127bb565b601f19841661276986612545565b60005b828110156127915784890151825560018201915060208501945060208101905061276c565b868310156127ae57848901516127aa601f8916826126b7565b8355505b6001600288020188555050505b505050505050565b6127cc81611a4e565b82525050565b60006060820190506127e760008301866127c3565b6127f46020830185611b65565b6128016040830184611b65565b949350505050565b600060208201905061281e60008301846127c3565b9291505056fea2646970667358221220daebb4dd2a6c86b9c272d905043f2e07afb70629fc761ef6dad1c1adcc219b8a64736f6c63430008180033",
  "linkReferences": {},
  "deployedLinkReferences": {}
}