{
  "_format": "hh-sol-artifact-1",
  "contractName": "Stocks1",
  "sourceName": "contracts/Stocks.sol",
  "abi": [
    {
      "inputs": [],
      "stateMutability": "nonpayable",
      "type": "constructor"
    },
    {
      "inputs": [
        {
          "internalType": "address",
          "name": "spender",
          "type": "address"
        },
        {
          "internalType": "uint256",
          "name": "allowance",
          "type": "uint256"
        },
        {
          "internalType": "uint256",
          "name": "needed",
          "type": "uint256"
        }
      ],
      "name": "ERC20InsufficientAllowance",
      "type": "error"
    },
    {
      "inputs": [
        {
          "internalType": "address",
          "name": "sender",
          "type": "address"
        },
        {
          "internalType": "uint256",
          "name": "balance",
          "type": "uint256"
        },
        {
          "internalType": "uint256",
          "name": "needed",
          "type": "uint256"
        }
      ],
      "name": "ERC20InsufficientBalance",
      "type": "error"
    },
    {
      "inputs": [
        {
          "internalType": "address",
          "name": "approver",
          "type": "address"
        }
      ],
      "name": "ERC20InvalidApprover",
      "type": "error"
    },
    {
      "inputs": [
        {
          "internalType": "address",
          "name": "receiver",
          "type": "address"
        }
      ],
      "name": "ERC20InvalidReceiver",
      "type": "error"
    },
    {
      "inputs": [
        {
          "internalType": "address",
          "name": "sender",
          "type": "address"
        }
      ],
      "name": "ERC20InvalidSender",
      "type": "error"
    },
    {
      "inputs": [
        {
          "internalType": "address",
          "name": "spender",
          "type": "address"
        }
      ],
      "name": "ERC20InvalidSpender",
      "type": "error"
    },
    {
      "anonymous": false,
      "inputs": [
        {
          "indexed": true,
          "internalType": "address",
          "name": "owner",
          "type": "address"
        },
        {
          "indexed": true,
          "internalType": "address",
          "name": "spender",
          "type": "address"
        },
        {
          "indexed": false,
          "internalType": "uint256",
          "name": "value",
          "type": "uint256"
        }
      ],
      "name": "Approval",
      "type": "event"
    },
    {
      "anonymous": false,
      "inputs": [
        {
          "indexed": true,
          "internalType": "address",
          "name": "from",
          "type": "address"
        },
        {
          "indexed": true,
          "internalType": "address",
          "name": "to",
          "type": "address"
        },
        {
          "indexed": false,
          "internalType": "uint256",
          "name": "value",
          "type": "uint256"
        }
      ],
      "name": "Transfer",
      "type": "event"
    },
    {
      "inputs": [
        {
          "internalType": "address",
          "name": "owner",
          "type": "address"
        },
        {
          "internalType": "address",
          "name": "spender",
          "type": "address"
        }
      ],
      "name": "allowance",
      "outputs": [
        {
          "internalType": "uint256",
          "name": "",
          "type": "uint256"
        }
      ],
      "stateMutability": "view",
      "type": "function"
    },
    {
      "inputs": [
        {
          "internalType": "address",
          "name": "spender",
          "type": "address"
        },
        {
          "internalType": "uint256",
          "name": "value",
          "type": "uint256"
        }
      ],
      "name": "approve",
      "outputs": [
        {
          "internalType": "bool",
          "name": "",
          "type": "bool"
        }
      ],
      "stateMutability": "nonpayable",
      "type": "function"
    },
    {
      "inputs": [
        {
          "internalType": "address",
          "name": "account",
          "type": "address"
        }
      ],
      "name": "balanceOf",
      "outputs": [
        {
          "internalType": "uint256",
          "name": "",
          "type": "uint256"
        }
      ],
      "stateMutability": "view",
      "type": "function"
    },
    {
      "inputs": [
        {
          "internalType": "uint256",
          "name": "buyerUserId",
          "type": "uint256"
        },
        {
          "internalType": "uint256",
          "name": "numberOfTokens",
          "type": "uint256"
        },
        {
          "internalType": "uint256",
          "name": "sellerUserId",
          "type": "uint256"
        },
        {
          "internalType": "address",
          "name": "sellerAddress",
          "type": "address"
        },
        {
          "internalType": "uint256",
          "name": "companyId",
          "type": "uint256"
        }
      ],
      "name": "buyTokens",
      "outputs": [],
      "stateMutability": "payable",
      "type": "function"
    },
    {
      "inputs": [
        {
          "internalType": "uint256",
          "name": "",
          "type": "uint256"
        }
      ],
      "name": "companies",
      "outputs": [
        {
          "internalType": "uint256",
          "name": "",
          "type": "uint256"
        }
      ],
      "stateMutability": "view",
      "type": "function"
    },
    {
      "inputs": [
        {
          "internalType": "uint256",
          "name": "",
          "type": "uint256"
        }
      ],
      "name": "companyTotalBalance",
      "outputs": [
        {
          "internalType": "uint256",
          "name": "",
          "type": "uint256"
        }
      ],
      "stateMutability": "view",
      "type": "function"
    },
    {
      "inputs": [],
      "name": "decimals",
      "outputs": [
        {
          "internalType": "uint8",
          "name": "",
          "type": "uint8"
        }
      ],
      "stateMutability": "view",
      "type": "function"
    },
    {
      "inputs": [
        {
          "internalType": "uint256",
          "name": "userId",
          "type": "uint256"
        },
        {
          "internalType": "uint256",
          "name": "companyId",
          "type": "uint256"
        }
      ],
      "name": "deposit",
      "outputs": [],
      "stateMutability": "payable",
      "type": "function"
    },
    {
      "inputs": [
        {
          "internalType": "uint256",
          "name": "companyId",
          "type": "uint256"
        }
      ],
      "name": "getCompanyTotalBalance",
      "outputs": [
        {
          "internalType": "uint256",
          "name": "",
          "type": "uint256"
        }
      ],
      "stateMutability": "view",
      "type": "function"
    },
    {
      "inputs": [
        {
          "internalType": "uint256",
          "name": "userId",
          "type": "uint256"
        }
      ],
      "name": "getUserBalance",
      "outputs": [
        {
          "internalType": "uint256",
          "name": "",
          "type": "uint256"
        }
      ],
      "stateMutability": "view",
      "type": "function"
    },
    {
      "inputs": [
        {
          "internalType": "uint256",
          "name": "userId",
          "type": "uint256"
        }
      ],
      "name": "getUserInvestedCompanies",
      "outputs": [
        {
          "internalType": "uint256[]",
          "name": "",
          "type": "uint256[]"
        }
      ],
      "stateMutability": "view",
      "type": "function"
    },
    {
      "inputs": [
        {
          "internalType": "uint256",
          "name": "userId",
          "type": "uint256"
        },
        {
          "internalType": "uint256",
          "name": "companyId",
          "type": "uint256"
        }
      ],
      "name": "getUserTokenBalance",
      "outputs": [
        {
          "internalType": "uint256",
          "name": "",
          "type": "uint256"
        }
      ],
      "stateMutability": "view",
      "type": "function"
    },
    {
      "inputs": [
        {
          "internalType": "uint256",
          "name": "",
          "type": "uint256"
        }
      ],
      "name": "isCompany",
      "outputs": [
        {
          "internalType": "bool",
          "name": "",
          "type": "bool"
        }
      ],
      "stateMutability": "view",
      "type": "function"
    },
    {
      "inputs": [
        {
          "internalType": "uint256",
          "name": "",
          "type": "uint256"
        }
      ],
      "name": "isParticipant",
      "outputs": [
        {
          "internalType": "bool",
          "name": "",
          "type": "bool"
        }
      ],
      "stateMutability": "view",
      "type": "function"
    },
    {
      "inputs": [],
      "name": "name",
      "outputs": [
        {
          "internalType": "string",
          "name": "",
          "type": "string"
        }
      ],
      "stateMutability": "view",
      "type": "function"
    },
    {
      "inputs": [
        {
          "internalType": "uint256",
          "name": "",
          "type": "uint256"
        }
      ],
      "name": "participants",
      "outputs": [
        {
          "internalType": "uint256",
          "name": "",
          "type": "uint256"
        }
      ],
      "stateMutability": "view",
      "type": "function"
    },
    {
      "inputs": [],
      "name": "symbol",
      "outputs": [
        {
          "internalType": "string",
          "name": "",
          "type": "string"
        }
      ],
      "stateMutability": "view",
      "type": "function"
    },
    {
      "inputs": [],
      "name": "totalSupply",
      "outputs": [
        {
          "internalType": "uint256",
          "name": "",
          "type": "uint256"
        }
      ],
      "stateMutability": "view",
      "type": "function"
    },
    {
      "inputs": [
        {
          "internalType": "address",
          "name": "to",
          "type": "address"
        },
        {
          "internalType": "uint256",
          "name": "value",
          "type": "uint256"
        }
      ],
      "name": "transfer",
      "outputs": [
        {
          "internalType": "bool",
          "name": "",
          "type": "bool"
        }
      ],
      "stateMutability": "nonpayable",
      "type": "function"
    },
    {
      "inputs": [
        {
          "internalType": "address",
          "name": "from",
          "type": "address"
        },
        {
          "internalType": "address",
          "name": "to",
          "type": "address"
        },
        {
          "internalType": "uint256",
          "name": "value",
          "type": "uint256"
        }
      ],
      "name": "transferFrom",
      "outputs": [
        {
          "internalType": "bool",
          "name": "",
          "type": "bool"
        }
      ],
      "stateMutability": "nonpayable",
      "type": "function"
    },
    {
      "inputs": [
        {
          "internalType": "uint256",
          "name": "",
          "type": "uint256"
        },
        {
          "internalType": "uint256",
          "name": "",
          "type": "uint256"
        }
      ],
      "name": "userTokenBalance",
      "outputs": [
        {
          "internalType": "uint256",
          "name": "",
          "type": "uint256"
        }
      ],
      "stateMutability": "view",
      "type": "function"
    }
  ],
  "bytecode": "0x60806040523480156200001157600080fd5b506040518060400160405280600b81526020017f536861726553746f636b730000000000000000000000000000000000000000008152506040518060400160405280600381526020017f534254000000000000000000000000000000000000000000000000000000000081525081600390816200008f919062000324565b508060049081620000a1919062000324565b5050506200040b565b600081519050919050565b7f4e487b7100000000000000000000000000000000000000000000000000000000600052604160045260246000fd5b7f4e487b7100000000000000000000000000000000000000000000000000000000600052602260045260246000fd5b600060028204905060018216806200012c57607f821691505b602082108103620001425762000141620000e4565b5b50919050565b60008190508160005260206000209050919050565b60006020601f8301049050919050565b600082821b905092915050565b600060088302620001ac7fffffffffffffffffffffffffffffffffffffffffffffffffffffffffffffffff826200016d565b620001b886836200016d565b95508019841693508086168417925050509392505050565b6000819050919050565b6000819050919050565b600062000205620001ff620001f984620001d0565b620001da565b620001d0565b9050919050565b6000819050919050565b6200022183620001e4565b6200023962000230826200020c565b8484546200017a565b825550505050565b600090565b6200025062000241565b6200025d81848462000216565b505050565b5b8181101562000285576200027960008262000246565b60018101905062000263565b5050565b601f821115620002d4576200029e8162000148565b620002a9846200015d565b81016020851015620002b9578190505b620002d1620002c8856200015d565b83018262000262565b50505b505050565b600082821c905092915050565b6000620002f960001984600802620002d9565b1980831691505092915050565b6000620003148383620002e6565b9150826002028217905092915050565b6200032f82620000aa565b67ffffffffffffffff8111156200034b576200034a620000b5565b5b62000357825462000113565b6200036482828562000289565b600060209050601f8311600181146200039c576000841562000387578287015190505b62000393858262000306565b86555062000403565b601f198416620003ac8662000148565b60005b82811015620003d657848901518255600182019150602085019450602081019050620003af565b86831015620003f65784890151620003f2601f891682620002e6565b8355505b6001600288020188555050505b505050505050565b611da9806200041b6000396000f3fe60806040526004361061012a5760003560e01c806335c1d349116100ab57806397d9efd21161006f57806397d9efd21461047a578063a9059cbb146104b7578063acafef76146104f4578063c2b616ab14610510578063dd62ed3e1461054d578063e2bbb1581461058a5761012a565b806335c1d3491461035b57806353bba0fb146103985780635c386695146103d557806370a082311461041257806395d89b411461044f5761012a565b80632813d19d116100f25780632813d19d1461023c578063281b9eff146102795780632844ffb6146102b65780632e0c3f3c146102f3578063313ce567146103305761012a565b806306fdde031461012f578063095ea7b31461015a578063111953ac1461019757806318160ddd146101d457806323b872dd146101ff575b600080fd5b34801561013b57600080fd5b506101446105a6565b6040516101519190611569565b60405180910390f35b34801561016657600080fd5b50610181600480360381019061017c9190611624565b610638565b60405161018e919061167f565b60405180910390f35b3480156101a357600080fd5b506101be60048036038101906101b9919061169a565b61065b565b6040516101cb919061167f565b60405180910390f35b3480156101e057600080fd5b506101e961067b565b6040516101f691906116d6565b60405180910390f35b34801561020b57600080fd5b50610226600480360381019061022191906116f1565b610685565b604051610233919061167f565b60405180910390f35b34801561024857600080fd5b50610263600480360381019061025e919061169a565b6106b4565b60405161027091906116d6565b60405180910390f35b34801561028557600080fd5b506102a0600480360381019061029b919061169a565b6106d8565b6040516102ad9190611802565b60405180910390f35b3480156102c257600080fd5b506102dd60048036038101906102d89190611824565b610815565b6040516102ea91906116d6565b60405180910390f35b3480156102ff57600080fd5b5061031a6004803603810190610315919061169a565b610844565b60405161032791906116d6565b60405180910390f35b34801561033c57600080fd5b506103456108c8565b6040516103529190611880565b60405180910390f35b34801561036757600080fd5b50610382600480360381019061037d919061169a565b6108d1565b60405161038f91906116d6565b60405180910390f35b3480156103a457600080fd5b506103bf60048036038101906103ba919061169a565b6108f5565b6040516103cc91906116d6565b60405180910390f35b3480156103e157600080fd5b506103fc60048036038101906103f79190611824565b610912565b60405161040991906116d6565b60405180910390f35b34801561041e57600080fd5b506104396004803603810190610434919061189b565b610937565b60405161044691906116d6565b60405180910390f35b34801561045b57600080fd5b5061046461097f565b6040516104719190611569565b60405180910390f35b34801561048657600080fd5b506104a1600480360381019061049c919061169a565b610a11565b6040516104ae919061167f565b60405180910390f35b3480156104c357600080fd5b506104de60048036038101906104d99190611624565b610a31565b6040516104eb919061167f565b60405180910390f35b61050e600480360381019061050991906118c8565b610a54565b005b34801561051c57600080fd5b506105376004803603810190610532919061169a565b610c6e565b60405161054491906116d6565b60405180910390f35b34801561055957600080fd5b50610574600480360381019061056f9190611943565b610c86565b60405161058191906116d6565b60405180910390f35b6105a4600480360381019061059f9190611824565b610d0d565b005b6060600380546105b5906119b2565b80601f01602080910402602001604051908101604052809291908181526020018280546105e1906119b2565b801561062e5780601f106106035761010080835404028352916020019161062e565b820191906000526020600020905b81548152906001019060200180831161061157829003601f168201915b5050505050905090565b600080610643610eb9565b9050610650818585610ec1565b600191505092915050565b60086020528060005260406000206000915054906101000a900460ff1681565b6000600254905090565b600080610690610eb9565b905061069d858285610ed3565b6106a8858585610f67565b60019150509392505050565b600681815481106106c457600080fd5b906000526020600020016000915090505481565b6060600060646006805490506106ee9190611a12565b90506000805b8281101561074557600060096000878152602001908152602001600020600083815260200190815260200160002054111561073857818061073490611a54565b9250505b80806001019150506106f4565b5060008167ffffffffffffffff81111561076257610761611a9c565b5b6040519080825280602002602001820160405280156107905781602001602082028036833780820191505090505b5090506000805b848110156108085760006009600089815260200190815260200160002060008381526020019081526020016000205411156107fb57808383815181106107e0576107df611acb565b5b60200260200101818152505081806107f790611a54565b9250505b8080600101915050610797565b5081945050505050919050565b600060096000848152602001908152602001600020600083815260200190815260200160002054905092915050565b600080600090506000600680549050905060005b818110156108bd576009600086815260200190815260200160002060006006838154811061088957610888611acb565b5b9060005260206000200154815260200190815260200160002054836108ae9190611afa565b92508080600101915050610858565b508192505050919050565b60006012905090565b600581815481106108e157600080fd5b906000526020600020016000915090505481565b6000600a6000838152602001908152602001600020549050919050565b6009602052816000526040600020602052806000526040600020600091509150505481565b60008060008373ffffffffffffffffffffffffffffffffffffffff1673ffffffffffffffffffffffffffffffffffffffff168152602001908152602001600020549050919050565b60606004805461098e906119b2565b80601f01602080910402602001604051908101604052809291908181526020018280546109ba906119b2565b8015610a075780601f106109dc57610100808354040283529160200191610a07565b820191906000526020600020905b8154815290600101906020018083116109ea57829003601f168201915b5050505050905090565b60076020528060005260406000206000915054906101000a900460ff1681565b600080610a3c610eb9565b9050610a49818585610f67565b600191505092915050565b60008411610a97576040517f08c379a0000000000000000000000000000000000000000000000000000000008152600401610a8e90611b7a565b60405180910390fd5b833414610ad9576040517f08c379a0000000000000000000000000000000000000000000000000000000008152600401610ad090611be6565b60405180910390fd5b83610ae383610937565b1015610b24576040517f08c379a0000000000000000000000000000000000000000000000000000000008152600401610b1b90611c52565b60405180910390fd5b6008600086815260200190815260200160002060009054906101000a900460ff16610b9f57600585908060018154018082558091505060019003906000526020600020016000909190919091505560016008600087815260200190815260200160002060006101000a81548160ff0219169083151502179055505b610baa823386610f67565b836009600087815260200190815260200160002060008381526020019081526020016000206000828254610bde9190611afa565b92505081905550836009600085815260200190815260200160002060008381526020019081526020016000206000828254610c199190611c72565b925050819055508173ffffffffffffffffffffffffffffffffffffffff166108fc349081150290604051600060405180830381858888f19350505050158015610c66573d6000803e3d6000fd5b505050505050565b600a6020528060005260406000206000915090505481565b6000600160008473ffffffffffffffffffffffffffffffffffffffff1673ffffffffffffffffffffffffffffffffffffffff16815260200190815260200160002060008373ffffffffffffffffffffffffffffffffffffffff1673ffffffffffffffffffffffffffffffffffffffff16815260200190815260200160002054905092915050565b60003411610d50576040517f08c379a0000000000000000000000000000000000000000000000000000000008152600401610d4790611cf2565b60405180910390fd5b6008600083815260200190815260200160002060009054906101000a900460ff16610dcb57600582908060018154018082558091505060019003906000526020600020016000909190919091505560016008600084815260200190815260200160002060006101000a81548160ff0219169083151502179055505b6007600082815260200190815260200160002060009054906101000a900460ff16610e4657600681908060018154018082558091505060019003906000526020600020016000909190919091505560016007600083815260200190815260200160002060006101000a81548160ff0219169083151502179055505b610e50333461105b565b346009600084815260200190815260200160002060008381526020019081526020016000206000828254610e849190611afa565b9250508190555034600a60008381526020019081526020016000206000828254610eae9190611afa565b925050819055505050565b600033905090565b610ece83838360016110dd565b505050565b6000610edf8484610c86565b90507fffffffffffffffffffffffffffffffffffffffffffffffffffffffffffffffff8114610f615781811015610f51578281836040517ffb8f41b2000000000000000000000000000000000000000000000000000000008152600401610f4893929190611d21565b60405180910390fd5b610f60848484840360006110dd565b5b50505050565b600073ffffffffffffffffffffffffffffffffffffffff168373ffffffffffffffffffffffffffffffffffffffff1603610fd95760006040517f96c6fd1e000000000000000000000000000000000000000000000000000000008152600401610fd09190611d58565b60405180910390fd5b600073ffffffffffffffffffffffffffffffffffffffff168273ffffffffffffffffffffffffffffffffffffffff160361104b5760006040517fec442f050000000000000000000000000000000000000000000000000000000081526004016110429190611d58565b60405180910390fd5b6110568383836112b4565b505050565b600073ffffffffffffffffffffffffffffffffffffffff168273ffffffffffffffffffffffffffffffffffffffff16036110cd5760006040517fec442f050000000000000000000000000000000000000000000000000000000081526004016110c49190611d58565b60405180910390fd5b6110d9600083836112b4565b5050565b600073ffffffffffffffffffffffffffffffffffffffff168473ffffffffffffffffffffffffffffffffffffffff160361114f5760006040517fe602df050000000000000000000000000000000000000000000000000000000081526004016111469190611d58565b60405180910390fd5b600073ffffffffffffffffffffffffffffffffffffffff168373ffffffffffffffffffffffffffffffffffffffff16036111c15760006040517f94280d620000000000000000000000000000000000000000000000000000000081526004016111b89190611d58565b60405180910390fd5b81600160008673ffffffffffffffffffffffffffffffffffffffff1673ffffffffffffffffffffffffffffffffffffffff16815260200190815260200160002060008573ffffffffffffffffffffffffffffffffffffffff1673ffffffffffffffffffffffffffffffffffffffff1681526020019081526020016000208190555080156112ae578273ffffffffffffffffffffffffffffffffffffffff168473ffffffffffffffffffffffffffffffffffffffff167f8c5be1e5ebec7d5bd14f71427d1e84f3dd0314c0f7b2291e5b200ac8c7c3b925846040516112a591906116d6565b60405180910390a35b50505050565b600073ffffffffffffffffffffffffffffffffffffffff168373ffffffffffffffffffffffffffffffffffffffff16036113065780600260008282546112fa9190611afa565b925050819055506113d9565b60008060008573ffffffffffffffffffffffffffffffffffffffff1673ffffffffffffffffffffffffffffffffffffffff16815260200190815260200160002054905081811015611392578381836040517fe450d38c00000000000000000000000000000000000000000000000000000000815260040161138993929190611d21565b60405180910390fd5b8181036000808673ffffffffffffffffffffffffffffffffffffffff1673ffffffffffffffffffffffffffffffffffffffff16815260200190815260200160002081905550505b600073ffffffffffffffffffffffffffffffffffffffff168273ffffffffffffffffffffffffffffffffffffffff1603611422578060026000828254039250508190555061146f565b806000808473ffffffffffffffffffffffffffffffffffffffff1673ffffffffffffffffffffffffffffffffffffffff168152602001908152602001600020600082825401925050819055505b8173ffffffffffffffffffffffffffffffffffffffff168373ffffffffffffffffffffffffffffffffffffffff167fddf252ad1be2c89b69c2b068fc378daa952ba7f163c4a11628f55a4df523b3ef836040516114cc91906116d6565b60405180910390a3505050565b600081519050919050565b600082825260208201905092915050565b60005b838110156115135780820151818401526020810190506114f8565b60008484015250505050565b6000601f19601f8301169050919050565b600061153b826114d9565b61154581856114e4565b93506115558185602086016114f5565b61155e8161151f565b840191505092915050565b600060208201905081810360008301526115838184611530565b905092915050565b600080fd5b600073ffffffffffffffffffffffffffffffffffffffff82169050919050565b60006115bb82611590565b9050919050565b6115cb816115b0565b81146115d657600080fd5b50565b6000813590506115e8816115c2565b92915050565b6000819050919050565b611601816115ee565b811461160c57600080fd5b50565b60008135905061161e816115f8565b92915050565b6000806040838503121561163b5761163a61158b565b5b6000611649858286016115d9565b925050602061165a8582860161160f565b9150509250929050565b60008115159050919050565b61167981611664565b82525050565b60006020820190506116946000830184611670565b92915050565b6000602082840312156116b0576116af61158b565b5b60006116be8482850161160f565b91505092915050565b6116d0816115ee565b82525050565b60006020820190506116eb60008301846116c7565b92915050565b60008060006060848603121561170a5761170961158b565b5b6000611718868287016115d9565b9350506020611729868287016115d9565b925050604061173a8682870161160f565b9150509250925092565b600081519050919050565b600082825260208201905092915050565b6000819050602082019050919050565b611779816115ee565b82525050565b600061178b8383611770565b60208301905092915050565b6000602082019050919050565b60006117af82611744565b6117b9818561174f565b93506117c483611760565b8060005b838110156117f55781516117dc888261177f565b97506117e783611797565b9250506001810190506117c8565b5085935050505092915050565b6000602082019050818103600083015261181c81846117a4565b905092915050565b6000806040838503121561183b5761183a61158b565b5b60006118498582860161160f565b925050602061185a8582860161160f565b9150509250929050565b600060ff82169050919050565b61187a81611864565b82525050565b60006020820190506118956000830184611871565b92915050565b6000602082840312156118b1576118b061158b565b5b60006118bf848285016115d9565b91505092915050565b600080600080600060a086880312156118e4576118e361158b565b5b60006118f28882890161160f565b95505060206119038882890161160f565b94505060406119148882890161160f565b9350506060611925888289016115d9565b92505060806119368882890161160f565b9150509295509295909350565b6000806040838503121561195a5761195961158b565b5b6000611968858286016115d9565b9250506020611979858286016115d9565b9150509250929050565b7f4e487b7100000000000000000000000000000000000000000000000000000000600052602260045260246000fd5b600060028204905060018216806119ca57607f821691505b6020821081036119dd576119dc611983565b5b50919050565b7f4e487b7100000000000000000000000000000000000000000000000000000000600052601160045260246000fd5b6000611a1d826115ee565b9150611a28836115ee565b9250828202611a36816115ee565b91508282048414831517611a4d57611a4c6119e3565b5b5092915050565b6000611a5f826115ee565b91507fffffffffffffffffffffffffffffffffffffffffffffffffffffffffffffffff8203611a9157611a906119e3565b5b600182019050919050565b7f4e487b7100000000000000000000000000000000000000000000000000000000600052604160045260246000fd5b7f4e487b7100000000000000000000000000000000000000000000000000000000600052603260045260246000fd5b6000611b05826115ee565b9150611b10836115ee565b9250828201905080821115611b2857611b276119e3565b5b92915050565b7f596f75206d75737420696e76657374206d6f7265207468616e20300000000000600082015250565b6000611b64601b836114e4565b9150611b6f82611b2e565b602082019050919050565b60006020820190508181036000830152611b9381611b57565b9050919050565b7f4d7573742062652073616d652061732070726963650000000000000000000000600082015250565b6000611bd06015836114e4565b9150611bdb82611b9a565b602082019050919050565b60006020820190508181036000830152611bff81611bc3565b9050919050565b7f4d757374206861766520656e6f75676820455448000000000000000000000000600082015250565b6000611c3c6014836114e4565b9150611c4782611c06565b602082019050919050565b60006020820190508181036000830152611c6b81611c2f565b9050919050565b6000611c7d826115ee565b9150611c88836115ee565b9250828203905081811115611ca057611c9f6119e3565b5b92915050565b7f596f75206861766520746f20696e7665737420736f6d65204554480000000000600082015250565b6000611cdc601b836114e4565b9150611ce782611ca6565b602082019050919050565b60006020820190508181036000830152611d0b81611ccf565b9050919050565b611d1b816115b0565b82525050565b6000606082019050611d366000830186611d12565b611d4360208301856116c7565b611d5060408301846116c7565b949350505050565b6000602082019050611d6d6000830184611d12565b9291505056fea264697066735822122074298c87ae6036e277bcc27f4a223242dd1e020619a976075247e31b2cfc792664736f6c63430008180033",
  "linkReferences": {},
  "deployedLinkReferences": {}
}