{
  "_format": "hh-sol-artifact-1",
  "contractName": "Stocks",
  "sourceName": "contracts/Stocks.sol",
  "abi": [
    {
      "inputs": [],
      "stateMutability": "nonpayable",
      "type": "constructor"
    },
    {
      "inputs": [
        {
          "internalType": "address",
          "name": "spender",
          "type": "address"
        },
        {
          "internalType": "uint256",
          "name": "allowance",
          "type": "uint256"
        },
        {
          "internalType": "uint256",
          "name": "needed",
          "type": "uint256"
        }
      ],
      "name": "ERC20InsufficientAllowance",
      "type": "error"
    },
    {
      "inputs": [
        {
          "internalType": "address",
          "name": "sender",
          "type": "address"
        },
        {
          "internalType": "uint256",
          "name": "balance",
          "type": "uint256"
        },
        {
          "internalType": "uint256",
          "name": "needed",
          "type": "uint256"
        }
      ],
      "name": "ERC20InsufficientBalance",
      "type": "error"
    },
    {
      "inputs": [
        {
          "internalType": "address",
          "name": "approver",
          "type": "address"
        }
      ],
      "name": "ERC20InvalidApprover",
      "type": "error"
    },
    {
      "inputs": [
        {
          "internalType": "address",
          "name": "receiver",
          "type": "address"
        }
      ],
      "name": "ERC20InvalidReceiver",
      "type": "error"
    },
    {
      "inputs": [
        {
          "internalType": "address",
          "name": "sender",
          "type": "address"
        }
      ],
      "name": "ERC20InvalidSender",
      "type": "error"
    },
    {
      "inputs": [
        {
          "internalType": "address",
          "name": "spender",
          "type": "address"
        }
      ],
      "name": "ERC20InvalidSpender",
      "type": "error"
    },
    {
      "anonymous": false,
      "inputs": [
        {
          "indexed": true,
          "internalType": "address",
          "name": "owner",
          "type": "address"
        },
        {
          "indexed": true,
          "internalType": "address",
          "name": "spender",
          "type": "address"
        },
        {
          "indexed": false,
          "internalType": "uint256",
          "name": "value",
          "type": "uint256"
        }
      ],
      "name": "Approval",
      "type": "event"
    },
    {
      "anonymous": false,
      "inputs": [
        {
          "indexed": true,
          "internalType": "address",
          "name": "from",
          "type": "address"
        },
        {
          "indexed": true,
          "internalType": "address",
          "name": "to",
          "type": "address"
        },
        {
          "indexed": false,
          "internalType": "uint256",
          "name": "value",
          "type": "uint256"
        }
      ],
      "name": "Transfer",
      "type": "event"
    },
    {
      "inputs": [
        {
          "internalType": "address",
          "name": "owner",
          "type": "address"
        },
        {
          "internalType": "address",
          "name": "spender",
          "type": "address"
        }
      ],
      "name": "allowance",
      "outputs": [
        {
          "internalType": "uint256",
          "name": "",
          "type": "uint256"
        }
      ],
      "stateMutability": "view",
      "type": "function"
    },
    {
      "inputs": [
        {
          "internalType": "address",
          "name": "spender",
          "type": "address"
        },
        {
          "internalType": "uint256",
          "name": "value",
          "type": "uint256"
        }
      ],
      "name": "approve",
      "outputs": [
        {
          "internalType": "bool",
          "name": "",
          "type": "bool"
        }
      ],
      "stateMutability": "nonpayable",
      "type": "function"
    },
    {
      "inputs": [
        {
          "internalType": "address",
          "name": "account",
          "type": "address"
        }
      ],
      "name": "balanceOf",
      "outputs": [
        {
          "internalType": "uint256",
          "name": "",
          "type": "uint256"
        }
      ],
      "stateMutability": "view",
      "type": "function"
    },
    {
      "inputs": [
        {
          "internalType": "uint256",
          "name": "buyerUserId",
          "type": "uint256"
        },
        {
          "internalType": "uint256",
          "name": "numberOfTokens",
          "type": "uint256"
        },
        {
          "internalType": "uint256",
          "name": "sellerUserId",
          "type": "uint256"
        },
        {
          "internalType": "address",
          "name": "sellerAddress",
          "type": "address"
        },
        {
          "internalType": "uint256",
          "name": "companyId",
          "type": "uint256"
        }
      ],
      "name": "buyTokens",
      "outputs": [],
      "stateMutability": "payable",
      "type": "function"
    },
    {
      "inputs": [
        {
          "internalType": "uint256",
          "name": "",
          "type": "uint256"
        }
      ],
      "name": "companyTotalBalance",
      "outputs": [
        {
          "internalType": "uint256",
          "name": "",
          "type": "uint256"
        }
      ],
      "stateMutability": "view",
      "type": "function"
    },
    {
      "inputs": [],
      "name": "decimals",
      "outputs": [
        {
          "internalType": "uint8",
          "name": "",
          "type": "uint8"
        }
      ],
      "stateMutability": "view",
      "type": "function"
    },
    {
      "inputs": [
        {
          "internalType": "uint256",
          "name": "userId",
          "type": "uint256"
        },
        {
          "internalType": "uint256",
          "name": "companyId",
          "type": "uint256"
        }
      ],
      "name": "deposit",
      "outputs": [],
      "stateMutability": "payable",
      "type": "function"
    },
    {
      "inputs": [
        {
          "internalType": "uint256",
          "name": "companyId",
          "type": "uint256"
        }
      ],
      "name": "getCompanyTotalBalance",
      "outputs": [
        {
          "internalType": "uint256",
          "name": "",
          "type": "uint256"
        }
      ],
      "stateMutability": "view",
      "type": "function"
    },
    {
      "inputs": [
        {
          "internalType": "uint256",
          "name": "userId",
          "type": "uint256"
        },
        {
          "internalType": "uint256",
          "name": "companyId",
          "type": "uint256"
        }
      ],
      "name": "getUserTokenBalance",
      "outputs": [
        {
          "internalType": "uint256",
          "name": "",
          "type": "uint256"
        }
      ],
      "stateMutability": "view",
      "type": "function"
    },
    {
      "inputs": [
        {
          "internalType": "uint256",
          "name": "",
          "type": "uint256"
        }
      ],
      "name": "isParticipant",
      "outputs": [
        {
          "internalType": "bool",
          "name": "",
          "type": "bool"
        }
      ],
      "stateMutability": "view",
      "type": "function"
    },
    {
      "inputs": [],
      "name": "name",
      "outputs": [
        {
          "internalType": "string",
          "name": "",
          "type": "string"
        }
      ],
      "stateMutability": "view",
      "type": "function"
    },
    {
      "inputs": [
        {
          "internalType": "uint256",
          "name": "",
          "type": "uint256"
        }
      ],
      "name": "participants",
      "outputs": [
        {
          "internalType": "uint256",
          "name": "",
          "type": "uint256"
        }
      ],
      "stateMutability": "view",
      "type": "function"
    },
    {
      "inputs": [],
      "name": "symbol",
      "outputs": [
        {
          "internalType": "string",
          "name": "",
          "type": "string"
        }
      ],
      "stateMutability": "view",
      "type": "function"
    },
    {
      "inputs": [],
      "name": "totalSupply",
      "outputs": [
        {
          "internalType": "uint256",
          "name": "",
          "type": "uint256"
        }
      ],
      "stateMutability": "view",
      "type": "function"
    },
    {
      "inputs": [
        {
          "internalType": "address",
          "name": "to",
          "type": "address"
        },
        {
          "internalType": "uint256",
          "name": "value",
          "type": "uint256"
        }
      ],
      "name": "transfer",
      "outputs": [
        {
          "internalType": "bool",
          "name": "",
          "type": "bool"
        }
      ],
      "stateMutability": "nonpayable",
      "type": "function"
    },
    {
      "inputs": [
        {
          "internalType": "address",
          "name": "from",
          "type": "address"
        },
        {
          "internalType": "address",
          "name": "to",
          "type": "address"
        },
        {
          "internalType": "uint256",
          "name": "value",
          "type": "uint256"
        }
      ],
      "name": "transferFrom",
      "outputs": [
        {
          "internalType": "bool",
          "name": "",
          "type": "bool"
        }
      ],
      "stateMutability": "nonpayable",
      "type": "function"
    },
    {
      "inputs": [
        {
          "internalType": "uint256",
          "name": "",
          "type": "uint256"
        },
        {
          "internalType": "uint256",
          "name": "",
          "type": "uint256"
        }
      ],
      "name": "userTokenBalance",
      "outputs": [
        {
          "internalType": "uint256",
          "name": "",
          "type": "uint256"
        }
      ],
      "stateMutability": "view",
      "type": "function"
    }
  ],
  "bytecode": "0x60806040523480156200001157600080fd5b506040518060400160405280600b81526020017f536861726553746f636b730000000000000000000000000000000000000000008152506040518060400160405280600381526020017f534254000000000000000000000000000000000000000000000000000000000081525081600390816200008f919062000324565b508060049081620000a1919062000324565b5050506200040b565b600081519050919050565b7f4e487b7100000000000000000000000000000000000000000000000000000000600052604160045260246000fd5b7f4e487b7100000000000000000000000000000000000000000000000000000000600052602260045260246000fd5b600060028204905060018216806200012c57607f821691505b602082108103620001425762000141620000e4565b5b50919050565b60008190508160005260206000209050919050565b60006020601f8301049050919050565b600082821b905092915050565b600060088302620001ac7fffffffffffffffffffffffffffffffffffffffffffffffffffffffffffffffff826200016d565b620001b886836200016d565b95508019841693508086168417925050509392505050565b6000819050919050565b6000819050919050565b600062000205620001ff620001f984620001d0565b620001da565b620001d0565b9050919050565b6000819050919050565b6200022183620001e4565b6200023962000230826200020c565b8484546200017a565b825550505050565b600090565b6200025062000241565b6200025d81848462000216565b505050565b5b8181101562000285576200027960008262000246565b60018101905062000263565b5050565b601f821115620002d4576200029e8162000148565b620002a9846200015d565b81016020851015620002b9578190505b620002d1620002c8856200015d565b83018262000262565b50505b505050565b600082821c905092915050565b6000620002f960001984600802620002d9565b1980831691505092915050565b6000620003148383620002e6565b9150826002028217905092915050565b6200032f82620000aa565b67ffffffffffffffff8111156200034b576200034a620000b5565b5b62000357825462000113565b6200036482828562000289565b600060209050601f8311600181146200039c576000841562000387578287015190505b62000393858262000306565b86555062000403565b601f198416620003ac8662000148565b60005b82811015620003d657848901518255600182019150602085019450602081019050620003af565b86831015620003f65784890151620003f2601f891682620002e6565b8355505b6001600288020188555050505b505050505050565b611841806200041b6000396000f3fe6080604052600436106100fe5760003560e01c806353bba0fb11610095578063a9059cbb11610064578063a9059cbb14610397578063acafef76146103d4578063c2b616ab146103f0578063dd62ed3e1461042d578063e2bbb1581461046a576100fe565b806353bba0fb146102b55780635c386695146102f257806370a082311461032f57806395d89b411461036c576100fe565b806323b872dd116100d157806323b872dd146101d35780632844ffb614610210578063313ce5671461024d57806335c1d34914610278576100fe565b806306fdde0314610103578063095ea7b31461012e578063111953ac1461016b57806318160ddd146101a8575b600080fd5b34801561010f57600080fd5b50610118610486565b60405161012591906111c9565b60405180910390f35b34801561013a57600080fd5b5061015560048036038101906101509190611284565b610518565b60405161016291906112df565b60405180910390f35b34801561017757600080fd5b50610192600480360381019061018d91906112fa565b61053b565b60405161019f91906112df565b60405180910390f35b3480156101b457600080fd5b506101bd61055b565b6040516101ca9190611336565b60405180910390f35b3480156101df57600080fd5b506101fa60048036038101906101f59190611351565b610565565b60405161020791906112df565b60405180910390f35b34801561021c57600080fd5b50610237600480360381019061023291906113a4565b610594565b6040516102449190611336565b60405180910390f35b34801561025957600080fd5b506102626105c3565b60405161026f9190611400565b60405180910390f35b34801561028457600080fd5b5061029f600480360381019061029a91906112fa565b6105cc565b6040516102ac9190611336565b60405180910390f35b3480156102c157600080fd5b506102dc60048036038101906102d791906112fa565b6105f0565b6040516102e99190611336565b60405180910390f35b3480156102fe57600080fd5b50610319600480360381019061031491906113a4565b61060d565b6040516103269190611336565b60405180910390f35b34801561033b57600080fd5b506103566004803603810190610351919061141b565b610632565b6040516103639190611336565b60405180910390f35b34801561037857600080fd5b5061038161067a565b60405161038e91906111c9565b60405180910390f35b3480156103a357600080fd5b506103be60048036038101906103b99190611284565b61070c565b6040516103cb91906112df565b60405180910390f35b6103ee60048036038101906103e99190611448565b61072f565b005b3480156103fc57600080fd5b50610417600480360381019061041291906112fa565b610949565b6040516104249190611336565b60405180910390f35b34801561043957600080fd5b50610454600480360381019061044f91906114c3565b610961565b6040516104619190611336565b60405180910390f35b610484600480360381019061047f91906113a4565b6109e8565b005b60606003805461049590611532565b80601f01602080910402602001604051908101604052809291908181526020018280546104c190611532565b801561050e5780601f106104e35761010080835404028352916020019161050e565b820191906000526020600020905b8154815290600101906020018083116104f157829003601f168201915b5050505050905090565b600080610523610b19565b9050610530818585610b21565b600191505092915050565b60066020528060005260406000206000915054906101000a900460ff1681565b6000600254905090565b600080610570610b19565b905061057d858285610b33565b610588858585610bc7565b60019150509392505050565b600060076000848152602001908152602001600020600083815260200190815260200160002054905092915050565b60006012905090565b600581815481106105dc57600080fd5b906000526020600020016000915090505481565b600060086000838152602001908152602001600020549050919050565b6007602052816000526040600020602052806000526040600020600091509150505481565b60008060008373ffffffffffffffffffffffffffffffffffffffff1673ffffffffffffffffffffffffffffffffffffffff168152602001908152602001600020549050919050565b60606004805461068990611532565b80601f01602080910402602001604051908101604052809291908181526020018280546106b590611532565b80156107025780601f106106d757610100808354040283529160200191610702565b820191906000526020600020905b8154815290600101906020018083116106e557829003601f168201915b5050505050905090565b600080610717610b19565b9050610724818585610bc7565b600191505092915050565b60008411610772576040517f08c379a0000000000000000000000000000000000000000000000000000000008152600401610769906115af565b60405180910390fd5b8334146107b4576040517f08c379a00000000000000000000000000000000000000000000000000000000081526004016107ab9061161b565b60405180910390fd5b836107be83610632565b10156107ff576040517f08c379a00000000000000000000000000000000000000000000000000000000081526004016107f690611687565b60405180910390fd5b6006600084815260200190815260200160002060009054906101000a900460ff1661087a57600583908060018154018082558091505060019003906000526020600020016000909190919091505560016006600085815260200190815260200160002060006101000a81548160ff0219169083151502179055505b610885823386610bc7565b8360076000878152602001908152602001600020600083815260200190815260200160002060008282546108b991906116d6565b925050819055508360076000858152602001908152602001600020600083815260200190815260200160002060008282546108f4919061170a565b925050819055508173ffffffffffffffffffffffffffffffffffffffff166108fc349081150290604051600060405180830381858888f19350505050158015610941573d6000803e3d6000fd5b505050505050565b60086020528060005260406000206000915090505481565b6000600160008473ffffffffffffffffffffffffffffffffffffffff1673ffffffffffffffffffffffffffffffffffffffff16815260200190815260200160002060008373ffffffffffffffffffffffffffffffffffffffff1673ffffffffffffffffffffffffffffffffffffffff16815260200190815260200160002054905092915050565b60003411610a2b576040517f08c379a0000000000000000000000000000000000000000000000000000000008152600401610a229061178a565b60405180910390fd5b6006600083815260200190815260200160002060009054906101000a900460ff16610aa657600582908060018154018082558091505060019003906000526020600020016000909190919091505560016006600084815260200190815260200160002060006101000a81548160ff0219169083151502179055505b610ab03334610cbb565b346007600084815260200190815260200160002060008381526020019081526020016000206000828254610ae491906116d6565b9250508190555034600860008381526020019081526020016000206000828254610b0e91906116d6565b925050819055505050565b600033905090565b610b2e8383836001610d3d565b505050565b6000610b3f8484610961565b90507fffffffffffffffffffffffffffffffffffffffffffffffffffffffffffffffff8114610bc15781811015610bb1578281836040517ffb8f41b2000000000000000000000000000000000000000000000000000000008152600401610ba8939291906117b9565b60405180910390fd5b610bc084848484036000610d3d565b5b50505050565b600073ffffffffffffffffffffffffffffffffffffffff168373ffffffffffffffffffffffffffffffffffffffff1603610c395760006040517f96c6fd1e000000000000000000000000000000000000000000000000000000008152600401610c3091906117f0565b60405180910390fd5b600073ffffffffffffffffffffffffffffffffffffffff168273ffffffffffffffffffffffffffffffffffffffff1603610cab5760006040517fec442f05000000000000000000000000000000000000000000000000000000008152600401610ca291906117f0565b60405180910390fd5b610cb6838383610f14565b505050565b600073ffffffffffffffffffffffffffffffffffffffff168273ffffffffffffffffffffffffffffffffffffffff1603610d2d5760006040517fec442f05000000000000000000000000000000000000000000000000000000008152600401610d2491906117f0565b60405180910390fd5b610d3960008383610f14565b5050565b600073ffffffffffffffffffffffffffffffffffffffff168473ffffffffffffffffffffffffffffffffffffffff1603610daf5760006040517fe602df05000000000000000000000000000000000000000000000000000000008152600401610da691906117f0565b60405180910390fd5b600073ffffffffffffffffffffffffffffffffffffffff168373ffffffffffffffffffffffffffffffffffffffff1603610e215760006040517f94280d62000000000000000000000000000000000000000000000000000000008152600401610e1891906117f0565b60405180910390fd5b81600160008673ffffffffffffffffffffffffffffffffffffffff1673ffffffffffffffffffffffffffffffffffffffff16815260200190815260200160002060008573ffffffffffffffffffffffffffffffffffffffff1673ffffffffffffffffffffffffffffffffffffffff168152602001908152602001600020819055508015610f0e578273ffffffffffffffffffffffffffffffffffffffff168473ffffffffffffffffffffffffffffffffffffffff167f8c5be1e5ebec7d5bd14f71427d1e84f3dd0314c0f7b2291e5b200ac8c7c3b92584604051610f059190611336565b60405180910390a35b50505050565b600073ffffffffffffffffffffffffffffffffffffffff168373ffffffffffffffffffffffffffffffffffffffff1603610f66578060026000828254610f5a91906116d6565b92505081905550611039565b60008060008573ffffffffffffffffffffffffffffffffffffffff1673ffffffffffffffffffffffffffffffffffffffff16815260200190815260200160002054905081811015610ff2578381836040517fe450d38c000000000000000000000000000000000000000000000000000000008152600401610fe9939291906117b9565b60405180910390fd5b8181036000808673ffffffffffffffffffffffffffffffffffffffff1673ffffffffffffffffffffffffffffffffffffffff16815260200190815260200160002081905550505b600073ffffffffffffffffffffffffffffffffffffffff168273ffffffffffffffffffffffffffffffffffffffff160361108257806002600082825403925050819055506110cf565b806000808473ffffffffffffffffffffffffffffffffffffffff1673ffffffffffffffffffffffffffffffffffffffff168152602001908152602001600020600082825401925050819055505b8173ffffffffffffffffffffffffffffffffffffffff168373ffffffffffffffffffffffffffffffffffffffff167fddf252ad1be2c89b69c2b068fc378daa952ba7f163c4a11628f55a4df523b3ef8360405161112c9190611336565b60405180910390a3505050565b600081519050919050565b600082825260208201905092915050565b60005b83811015611173578082015181840152602081019050611158565b60008484015250505050565b6000601f19601f8301169050919050565b600061119b82611139565b6111a58185611144565b93506111b5818560208601611155565b6111be8161117f565b840191505092915050565b600060208201905081810360008301526111e38184611190565b905092915050565b600080fd5b600073ffffffffffffffffffffffffffffffffffffffff82169050919050565b600061121b826111f0565b9050919050565b61122b81611210565b811461123657600080fd5b50565b60008135905061124881611222565b92915050565b6000819050919050565b6112618161124e565b811461126c57600080fd5b50565b60008135905061127e81611258565b92915050565b6000806040838503121561129b5761129a6111eb565b5b60006112a985828601611239565b92505060206112ba8582860161126f565b9150509250929050565b60008115159050919050565b6112d9816112c4565b82525050565b60006020820190506112f460008301846112d0565b92915050565b6000602082840312156113105761130f6111eb565b5b600061131e8482850161126f565b91505092915050565b6113308161124e565b82525050565b600060208201905061134b6000830184611327565b92915050565b60008060006060848603121561136a576113696111eb565b5b600061137886828701611239565b935050602061138986828701611239565b925050604061139a8682870161126f565b9150509250925092565b600080604083850312156113bb576113ba6111eb565b5b60006113c98582860161126f565b92505060206113da8582860161126f565b9150509250929050565b600060ff82169050919050565b6113fa816113e4565b82525050565b600060208201905061141560008301846113f1565b92915050565b600060208284031215611431576114306111eb565b5b600061143f84828501611239565b91505092915050565b600080600080600060a08688031215611464576114636111eb565b5b60006114728882890161126f565b95505060206114838882890161126f565b94505060406114948882890161126f565b93505060606114a588828901611239565b92505060806114b68882890161126f565b9150509295509295909350565b600080604083850312156114da576114d96111eb565b5b60006114e885828601611239565b92505060206114f985828601611239565b9150509250929050565b7f4e487b7100000000000000000000000000000000000000000000000000000000600052602260045260246000fd5b6000600282049050600182168061154a57607f821691505b60208210810361155d5761155c611503565b5b50919050565b7f596f75206d75737420696e76657374206d6f7265207468616e20300000000000600082015250565b6000611599601b83611144565b91506115a482611563565b602082019050919050565b600060208201905081810360008301526115c88161158c565b9050919050565b7f4d7573742062652073616d652061732070726963650000000000000000000000600082015250565b6000611605601583611144565b9150611610826115cf565b602082019050919050565b60006020820190508181036000830152611634816115f8565b9050919050565b7f4d757374206861766520656e6f75676820455448000000000000000000000000600082015250565b6000611671601483611144565b915061167c8261163b565b602082019050919050565b600060208201905081810360008301526116a081611664565b9050919050565b7f4e487b7100000000000000000000000000000000000000000000000000000000600052601160045260246000fd5b60006116e18261124e565b91506116ec8361124e565b9250828201905080821115611704576117036116a7565b5b92915050565b60006117158261124e565b91506117208361124e565b9250828203905081811115611738576117376116a7565b5b92915050565b7f596f75206861766520746f20696e7665737420736f6d65204554480000000000600082015250565b6000611774601b83611144565b915061177f8261173e565b602082019050919050565b600060208201905081810360008301526117a381611767565b9050919050565b6117b381611210565b82525050565b60006060820190506117ce60008301866117aa565b6117db6020830185611327565b6117e86040830184611327565b949350505050565b600060208201905061180560008301846117aa565b9291505056fea2646970667358221220530474b4c4ef04aaa725fc506014eafaa1bee363e60bbf9a1473610014ef4c0464736f6c63430008180033",
  "linkReferences": {},
  "deployedLinkReferences": {}
}